{
  "contractName": "MyToken",
  "abi": [
    {
      "inputs": [],
      "stateMutability": "nonpayable",
      "type": "constructor"
    },
    {
      "anonymous": false,
      "inputs": [
        {
          "indexed": true,
          "internalType": "address",
          "name": "owner",
          "type": "address"
        },
        {
          "indexed": true,
          "internalType": "address",
          "name": "approved",
          "type": "address"
        },
        {
          "indexed": true,
          "internalType": "uint256",
          "name": "tokenId",
          "type": "uint256"
        }
      ],
      "name": "Approval",
      "type": "event"
    },
    {
      "anonymous": false,
      "inputs": [
        {
          "indexed": true,
          "internalType": "address",
          "name": "owner",
          "type": "address"
        },
        {
          "indexed": true,
          "internalType": "address",
          "name": "operator",
          "type": "address"
        },
        {
          "indexed": false,
          "internalType": "bool",
          "name": "approved",
          "type": "bool"
        }
      ],
      "name": "ApprovalForAll",
      "type": "event"
    },
    {
      "anonymous": false,
      "inputs": [
        {
          "indexed": true,
          "internalType": "address",
          "name": "previousOwner",
          "type": "address"
        },
        {
          "indexed": true,
          "internalType": "address",
          "name": "newOwner",
          "type": "address"
        }
      ],
      "name": "OwnershipTransferred",
      "type": "event"
    },
    {
      "anonymous": false,
      "inputs": [
        {
          "indexed": false,
          "internalType": "address",
          "name": "account",
          "type": "address"
        }
      ],
      "name": "Paused",
      "type": "event"
    },
    {
      "anonymous": false,
      "inputs": [
        {
          "indexed": true,
          "internalType": "address",
          "name": "from",
          "type": "address"
        },
        {
          "indexed": true,
          "internalType": "address",
          "name": "to",
          "type": "address"
        },
        {
          "indexed": true,
          "internalType": "uint256",
          "name": "tokenId",
          "type": "uint256"
        }
      ],
      "name": "Transfer",
      "type": "event"
    },
    {
      "anonymous": false,
      "inputs": [
        {
          "indexed": false,
          "internalType": "address",
          "name": "account",
          "type": "address"
        }
      ],
      "name": "Unpaused",
      "type": "event"
    },
    {
      "inputs": [
        {
          "internalType": "address",
          "name": "to",
          "type": "address"
        },
        {
          "internalType": "uint256",
          "name": "tokenId",
          "type": "uint256"
        }
      ],
      "name": "approve",
      "outputs": [],
      "stateMutability": "nonpayable",
      "type": "function"
    },
    {
      "inputs": [
        {
          "internalType": "address",
          "name": "owner",
          "type": "address"
        }
      ],
      "name": "balanceOf",
      "outputs": [
        {
          "internalType": "uint256",
          "name": "",
          "type": "uint256"
        }
      ],
      "stateMutability": "view",
      "type": "function"
    },
    {
      "inputs": [
        {
          "internalType": "uint256",
          "name": "tokenId",
          "type": "uint256"
        }
      ],
      "name": "burn",
      "outputs": [],
      "stateMutability": "nonpayable",
      "type": "function"
    },
    {
      "inputs": [
        {
          "internalType": "uint256",
          "name": "tokenId",
          "type": "uint256"
        }
      ],
      "name": "getApproved",
      "outputs": [
        {
          "internalType": "address",
          "name": "",
          "type": "address"
        }
      ],
      "stateMutability": "view",
      "type": "function"
    },
    {
      "inputs": [
        {
          "internalType": "address",
          "name": "owner",
          "type": "address"
        },
        {
          "internalType": "address",
          "name": "operator",
          "type": "address"
        }
      ],
      "name": "isApprovedForAll",
      "outputs": [
        {
          "internalType": "bool",
          "name": "",
          "type": "bool"
        }
      ],
      "stateMutability": "view",
      "type": "function"
    },
    {
      "inputs": [],
      "name": "name",
      "outputs": [
        {
          "internalType": "string",
          "name": "",
          "type": "string"
        }
      ],
      "stateMutability": "view",
      "type": "function"
    },
    {
      "inputs": [],
      "name": "owner",
      "outputs": [
        {
          "internalType": "address",
          "name": "",
          "type": "address"
        }
      ],
      "stateMutability": "view",
      "type": "function"
    },
    {
      "inputs": [
        {
          "internalType": "uint256",
          "name": "tokenId",
          "type": "uint256"
        }
      ],
      "name": "ownerOf",
      "outputs": [
        {
          "internalType": "address",
          "name": "",
          "type": "address"
        }
      ],
      "stateMutability": "view",
      "type": "function"
    },
    {
      "inputs": [],
      "name": "paused",
      "outputs": [
        {
          "internalType": "bool",
          "name": "",
          "type": "bool"
        }
      ],
      "stateMutability": "view",
      "type": "function"
    },
    {
      "inputs": [],
      "name": "renounceOwnership",
      "outputs": [],
      "stateMutability": "nonpayable",
      "type": "function"
    },
    {
      "inputs": [
        {
          "internalType": "address",
          "name": "from",
          "type": "address"
        },
        {
          "internalType": "address",
          "name": "to",
          "type": "address"
        },
        {
          "internalType": "uint256",
          "name": "tokenId",
          "type": "uint256"
        }
      ],
      "name": "safeTransferFrom",
      "outputs": [],
      "stateMutability": "nonpayable",
      "type": "function"
    },
    {
      "inputs": [
        {
          "internalType": "address",
          "name": "from",
          "type": "address"
        },
        {
          "internalType": "address",
          "name": "to",
          "type": "address"
        },
        {
          "internalType": "uint256",
          "name": "tokenId",
          "type": "uint256"
        },
        {
          "internalType": "bytes",
          "name": "_data",
          "type": "bytes"
        }
      ],
      "name": "safeTransferFrom",
      "outputs": [],
      "stateMutability": "nonpayable",
      "type": "function"
    },
    {
      "inputs": [
        {
          "internalType": "address",
          "name": "operator",
          "type": "address"
        },
        {
          "internalType": "bool",
          "name": "approved",
          "type": "bool"
        }
      ],
      "name": "setApprovalForAll",
      "outputs": [],
      "stateMutability": "nonpayable",
      "type": "function"
    },
    {
      "inputs": [
        {
          "internalType": "bytes4",
          "name": "interfaceId",
          "type": "bytes4"
        }
      ],
      "name": "supportsInterface",
      "outputs": [
        {
          "internalType": "bool",
          "name": "",
          "type": "bool"
        }
      ],
      "stateMutability": "view",
      "type": "function"
    },
    {
      "inputs": [],
      "name": "symbol",
      "outputs": [
        {
          "internalType": "string",
          "name": "",
          "type": "string"
        }
      ],
      "stateMutability": "view",
      "type": "function"
    },
    {
      "inputs": [
        {
          "internalType": "uint256",
          "name": "tokenId",
          "type": "uint256"
        }
      ],
      "name": "tokenURI",
      "outputs": [
        {
          "internalType": "string",
          "name": "",
          "type": "string"
        }
      ],
      "stateMutability": "view",
      "type": "function"
    },
    {
      "inputs": [
        {
          "internalType": "address",
          "name": "from",
          "type": "address"
        },
        {
          "internalType": "address",
          "name": "to",
          "type": "address"
        },
        {
          "internalType": "uint256",
          "name": "tokenId",
          "type": "uint256"
        }
      ],
      "name": "transferFrom",
      "outputs": [],
      "stateMutability": "nonpayable",
      "type": "function"
    },
    {
      "inputs": [
        {
          "internalType": "address",
          "name": "newOwner",
          "type": "address"
        }
      ],
      "name": "transferOwnership",
      "outputs": [],
      "stateMutability": "nonpayable",
      "type": "function"
    },
    {
      "inputs": [],
      "name": "pause",
      "outputs": [],
      "stateMutability": "nonpayable",
      "type": "function"
    },
    {
      "inputs": [],
      "name": "unpause",
      "outputs": [],
      "stateMutability": "nonpayable",
      "type": "function"
    },
    {
      "inputs": [
        {
          "internalType": "address",
          "name": "to",
          "type": "address"
        }
      ],
      "name": "safeMint",
      "outputs": [],
      "stateMutability": "nonpayable",
      "type": "function"
    }
  ],
  "bytecode": "0x60806040523480156200001157600080fd5b506040518060400160405280600781526020017f4d79546f6b656e000000000000000000000000000000000000000000000000008152506040518060400160405280600381526020017f4d544b0000000000000000000000000000000000000000000000000000000000815250816000908051906020019062000096929190620001c1565b508060019080519060200190620000af929190620001c1565b5050506000600660006101000a81548160ff021916908315150217905550620000ed620000e1620000f360201b60201c565b620000fb60201b60201c565b620002d6565b600033905090565b6000600660019054906101000a900473ffffffffffffffffffffffffffffffffffffffff16905081600660016101000a81548173ffffffffffffffffffffffffffffffffffffffff021916908373ffffffffffffffffffffffffffffffffffffffff1602179055508173ffffffffffffffffffffffffffffffffffffffff168173ffffffffffffffffffffffffffffffffffffffff167f8be0079c531659141344cd1fd0a4f28419497f9722a3daafe3b4186f6b6457e060405160405180910390a35050565b828054620001cf9062000271565b90600052602060002090601f016020900481019282620001f357600085556200023f565b82601f106200020e57805160ff19168380011785556200023f565b828001600101855582156200023f579182015b828111156200023e57825182559160200191906001019062000221565b5b5090506200024e919062000252565b5090565b5b808211156200026d57600081600090555060010162000253565b5090565b600060028204905060018216806200028a57607f821691505b60208210811415620002a157620002a0620002a7565b5b50919050565b7f4e487b7100000000000000000000000000000000000000000000000000000000600052602260045260246000fd5b6131f480620002e66000396000f3fe608060405234801561001057600080fd5b50600436106101375760003560e01c80636352211e116100b857806395d89b411161007c57806395d89b4114610300578063a22cb4651461031e578063b88d4fde1461033a578063c87b56dd14610356578063e985e9c514610386578063f2fde38b146103b657610137565b80636352211e1461026e57806370a082311461029e578063715018a6146102ce5780638456cb59146102d85780638da5cb5b146102e257610137565b80633f4ba83a116100ff5780633f4ba83a146101f257806340d097c3146101fc57806342842e0e1461021857806342966c68146102345780635c975abb1461025057610137565b806301ffc9a71461013c57806306fdde031461016c578063081812fc1461018a578063095ea7b3146101ba57806323b872dd146101d6575b600080fd5b6101566004803603810190610151919061213f565b6103d2565b60405161016391906125ba565b60405180910390f35b6101746104b4565b60405161018191906125d5565b60405180910390f35b6101a4600480360381019061019f9190612199565b610546565b6040516101b19190612553565b60405180910390f35b6101d460048036038101906101cf91906120ff565b6105cb565b005b6101f060048036038101906101eb9190611fe9565b6106e3565b005b6101fa610743565b005b61021660048036038101906102119190611f7c565b6107c9565b005b610232600480360381019061022d9190611fe9565b61086b565b005b61024e60048036038101906102499190612199565b61088b565b005b6102586108e7565b60405161026591906125ba565b60405180910390f35b61028860048036038101906102839190612199565b6108fe565b6040516102959190612553565b60405180910390f35b6102b860048036038101906102b39190611f7c565b6109b0565b6040516102c59190612857565b60405180910390f35b6102d6610a68565b005b6102e0610af0565b005b6102ea610b76565b6040516102f79190612553565b60405180910390f35b610308610ba0565b60405161031591906125d5565b60405180910390f35b610338600480360381019061033391906120bf565b610c32565b005b610354600480360381019061034f919061203c565b610c48565b005b610370600480360381019061036b9190612199565b610caa565b60405161037d91906125d5565b60405180910390f35b6103a0600480360381019061039b9190611fa9565b610d51565b6040516103ad91906125ba565b60405180910390f35b6103d060048036038101906103cb9190611f7c565b610de5565b005b60007f80ac58cd000000000000000000000000000000000000000000000000000000007bffffffffffffffffffffffffffffffffffffffffffffffffffffffff1916827bffffffffffffffffffffffffffffffffffffffffffffffffffffffff1916148061049d57507f5b5e139f000000000000000000000000000000000000000000000000000000007bffffffffffffffffffffffffffffffffffffffffffffffffffffffff1916827bffffffffffffffffffffffffffffffffffffffffffffffffffffffff1916145b806104ad57506104ac82610edd565b5b9050919050565b6060600080546104c390612a7c565b80601f01602080910402602001604051908101604052809291908181526020018280546104ef90612a7c565b801561053c5780601f106105115761010080835404028352916020019161053c565b820191906000526020600020905b81548152906001019060200180831161051f57829003601f168201915b5050505050905090565b600061055182610f47565b610590576040517f08c379a000000000000000000000000000000000000000000000000000000000815260040161058790612777565b60405180910390fd5b6004600083815260200190815260200160002060009054906101000a900473ffffffffffffffffffffffffffffffffffffffff169050919050565b60006105d6826108fe565b90508073ffffffffffffffffffffffffffffffffffffffff168373ffffffffffffffffffffffffffffffffffffffff161415610647576040517f08c379a000000000000000000000000000000000000000000000000000000000815260040161063e906127f7565b60405180910390fd5b8073ffffffffffffffffffffffffffffffffffffffff16610666610fb3565b73ffffffffffffffffffffffffffffffffffffffff16148061069557506106948161068f610fb3565b610d51565b5b6106d4576040517f08c379a00000000000000000000000000000000000000000000000000000000081526004016106cb906126f7565b60405180910390fd5b6106de8383610fbb565b505050565b6106f46106ee610fb3565b82611074565b610733576040517f08c379a000000000000000000000000000000000000000000000000000000000815260040161072a90612817565b60405180910390fd5b61073e838383611152565b505050565b61074b610fb3565b73ffffffffffffffffffffffffffffffffffffffff16610769610b76565b73ffffffffffffffffffffffffffffffffffffffff16146107bf576040517f08c379a00000000000000000000000000000000000000000000000000000000081526004016107b690612797565b60405180910390fd5b6107c76113ae565b565b6107d1610fb3565b73ffffffffffffffffffffffffffffffffffffffff166107ef610b76565b73ffffffffffffffffffffffffffffffffffffffff1614610845576040517f08c379a000000000000000000000000000000000000000000000000000000000815260040161083c90612797565b60405180910390fd5b60006108516007611450565b905061085d600761145e565b6108678282611474565b5050565b61088683838360405180602001604052806000815250610c48565b505050565b61089c610896610fb3565b82611074565b6108db576040517f08c379a00000000000000000000000000000000000000000000000000000000081526004016108d290612837565b60405180910390fd5b6108e481611492565b50565b6000600660009054906101000a900460ff16905090565b6000806002600084815260200190815260200160002060009054906101000a900473ffffffffffffffffffffffffffffffffffffffff169050600073ffffffffffffffffffffffffffffffffffffffff168173ffffffffffffffffffffffffffffffffffffffff1614156109a7576040517f08c379a000000000000000000000000000000000000000000000000000000000815260040161099e90612737565b60405180910390fd5b80915050919050565b60008073ffffffffffffffffffffffffffffffffffffffff168273ffffffffffffffffffffffffffffffffffffffff161415610a21576040517f08c379a0000000000000000000000000000000000000000000000000000000008152600401610a1890612717565b60405180910390fd5b600360008373ffffffffffffffffffffffffffffffffffffffff1673ffffffffffffffffffffffffffffffffffffffff168152602001908152602001600020549050919050565b610a70610fb3565b73ffffffffffffffffffffffffffffffffffffffff16610a8e610b76565b73ffffffffffffffffffffffffffffffffffffffff1614610ae4576040517f08c379a0000000000000000000000000000000000000000000000000000000008152600401610adb90612797565b60405180910390fd5b610aee60006115a3565b565b610af8610fb3565b73ffffffffffffffffffffffffffffffffffffffff16610b16610b76565b73ffffffffffffffffffffffffffffffffffffffff1614610b6c576040517f08c379a0000000000000000000000000000000000000000000000000000000008152600401610b6390612797565b60405180910390fd5b610b74611669565b565b6000600660019054906101000a900473ffffffffffffffffffffffffffffffffffffffff16905090565b606060018054610baf90612a7c565b80601f0160208091040260200160405190810160405280929190818152602001828054610bdb90612a7c565b8015610c285780601f10610bfd57610100808354040283529160200191610c28565b820191906000526020600020905b815481529060010190602001808311610c0b57829003601f168201915b5050505050905090565b610c44610c3d610fb3565b838361170c565b5050565b610c59610c53610fb3565b83611074565b610c98576040517f08c379a0000000000000000000000000000000000000000000000000000000008152600401610c8f90612817565b60405180910390fd5b610ca484848484611879565b50505050565b6060610cb582610f47565b610cf4576040517f08c379a0000000000000000000000000000000000000000000000000000000008152600401610ceb906127d7565b60405180910390fd5b6000610cfe6118d5565b90506000815111610d1e5760405180602001604052806000815250610d49565b80610d2884611912565b604051602001610d3992919061252f565b6040516020818303038152906040525b915050919050565b6000600560008473ffffffffffffffffffffffffffffffffffffffff1673ffffffffffffffffffffffffffffffffffffffff16815260200190815260200160002060008373ffffffffffffffffffffffffffffffffffffffff1673ffffffffffffffffffffffffffffffffffffffff16815260200190815260200160002060009054906101000a900460ff16905092915050565b610ded610fb3565b73ffffffffffffffffffffffffffffffffffffffff16610e0b610b76565b73ffffffffffffffffffffffffffffffffffffffff1614610e61576040517f08c379a0000000000000000000000000000000000000000000000000000000008152600401610e5890612797565b60405180910390fd5b600073ffffffffffffffffffffffffffffffffffffffff168173ffffffffffffffffffffffffffffffffffffffff161415610ed1576040517f08c379a0000000000000000000000000000000000000000000000000000000008152600401610ec890612637565b60405180910390fd5b610eda816115a3565b50565b60007f01ffc9a7000000000000000000000000000000000000000000000000000000007bffffffffffffffffffffffffffffffffffffffffffffffffffffffff1916827bffffffffffffffffffffffffffffffffffffffffffffffffffffffff1916149050919050565b60008073ffffffffffffffffffffffffffffffffffffffff166002600084815260200190815260200160002060009054906101000a900473ffffffffffffffffffffffffffffffffffffffff1673ffffffffffffffffffffffffffffffffffffffff1614159050919050565b600033905090565b816004600083815260200190815260200160002060006101000a81548173ffffffffffffffffffffffffffffffffffffffff021916908373ffffffffffffffffffffffffffffffffffffffff160217905550808273ffffffffffffffffffffffffffffffffffffffff1661102e836108fe565b73ffffffffffffffffffffffffffffffffffffffff167f8c5be1e5ebec7d5bd14f71427d1e84f3dd0314c0f7b2291e5b200ac8c7c3b92560405160405180910390a45050565b600061107f82610f47565b6110be576040517f08c379a00000000000000000000000000000000000000000000000000000000081526004016110b5906126b7565b60405180910390fd5b60006110c9836108fe565b90508073ffffffffffffffffffffffffffffffffffffffff168473ffffffffffffffffffffffffffffffffffffffff16148061113857508373ffffffffffffffffffffffffffffffffffffffff1661112084610546565b73ffffffffffffffffffffffffffffffffffffffff16145b8061114957506111488185610d51565b5b91505092915050565b8273ffffffffffffffffffffffffffffffffffffffff16611172826108fe565b73ffffffffffffffffffffffffffffffffffffffff16146111c8576040517f08c379a00000000000000000000000000000000000000000000000000000000081526004016111bf906127b7565b60405180910390fd5b600073ffffffffffffffffffffffffffffffffffffffff168273ffffffffffffffffffffffffffffffffffffffff161415611238576040517f08c379a000000000000000000000000000000000000000000000000000000000815260040161122f90612677565b60405180910390fd5b611243838383611a73565b61124e600082610fbb565b6001600360008573ffffffffffffffffffffffffffffffffffffffff1673ffffffffffffffffffffffffffffffffffffffff168152602001908152602001600020600082825461129e9190612992565b925050819055506001600360008473ffffffffffffffffffffffffffffffffffffffff1673ffffffffffffffffffffffffffffffffffffffff16815260200190815260200160002060008282546112f5919061290b565b92505081905550816002600083815260200190815260200160002060006101000a81548173ffffffffffffffffffffffffffffffffffffffff021916908373ffffffffffffffffffffffffffffffffffffffff160217905550808273ffffffffffffffffffffffffffffffffffffffff168473ffffffffffffffffffffffffffffffffffffffff167fddf252ad1be2c89b69c2b068fc378daa952ba7f163c4a11628f55a4df523b3ef60405160405180910390a4505050565b6113b66108e7565b6113f5576040517f08c379a00000000000000000000000000000000000000000000000000000000081526004016113ec906125f7565b60405180910390fd5b6000600660006101000a81548160ff0219169083151502179055507f5db9ee0a495bf2e6ff9c91a7834c1ba4fdd244a5e8aa4e537bd38aeae4b073aa611439610fb3565b6040516114469190612553565b60405180910390a1565b600081600001549050919050565b6001816000016000828254019250508190555050565b61148e828260405180602001604052806000815250611acb565b5050565b600061149d826108fe565b90506114ab81600084611a73565b6114b6600083610fbb565b6001600360008373ffffffffffffffffffffffffffffffffffffffff1673ffffffffffffffffffffffffffffffffffffffff16815260200190815260200160002060008282546115069190612992565b925050819055506002600083815260200190815260200160002060006101000a81549073ffffffffffffffffffffffffffffffffffffffff021916905581600073ffffffffffffffffffffffffffffffffffffffff168273ffffffffffffffffffffffffffffffffffffffff167fddf252ad1be2c89b69c2b068fc378daa952ba7f163c4a11628f55a4df523b3ef60405160405180910390a45050565b6000600660019054906101000a900473ffffffffffffffffffffffffffffffffffffffff16905081600660016101000a81548173ffffffffffffffffffffffffffffffffffffffff021916908373ffffffffffffffffffffffffffffffffffffffff1602179055508173ffffffffffffffffffffffffffffffffffffffff168173ffffffffffffffffffffffffffffffffffffffff167f8be0079c531659141344cd1fd0a4f28419497f9722a3daafe3b4186f6b6457e060405160405180910390a35050565b6116716108e7565b156116b1576040517f08c379a00000000000000000000000000000000000000000000000000000000081526004016116a8906126d7565b60405180910390fd5b6001600660006101000a81548160ff0219169083151502179055507f62e78cea01bee320cd4e420270b5ea74000d11b0c9f74754ebdbfc544b05a2586116f5610fb3565b6040516117029190612553565b60405180910390a1565b8173ffffffffffffffffffffffffffffffffffffffff168373ffffffffffffffffffffffffffffffffffffffff16141561177b576040517f08c379a000000000000000000000000000000000000000000000000000000000815260040161177290612697565b60405180910390fd5b80600560008573ffffffffffffffffffffffffffffffffffffffff1673ffffffffffffffffffffffffffffffffffffffff16815260200190815260200160002060008473ffffffffffffffffffffffffffffffffffffffff1673ffffffffffffffffffffffffffffffffffffffff16815260200190815260200160002060006101000a81548160ff0219169083151502179055508173ffffffffffffffffffffffffffffffffffffffff168373ffffffffffffffffffffffffffffffffffffffff167f17307eab39ab6107e8899845ad3d59bd9653f200f220920489ca2b5937696c318360405161186c91906125ba565b60405180910390a3505050565b611884848484611152565b61189084848484611b26565b6118cf576040517f08c379a00000000000000000000000000000000000000000000000000000000081526004016118c690612617565b60405180910390fd5b50505050565b60606040518060400160405280601081526020017f68747470733a2f2f426173652d55524900000000000000000000000000000000815250905090565b6060600082141561195a576040518060400160405280600181526020017f30000000000000000000000000000000000000000000000000000000000000008152509050611a6e565b600082905060005b6000821461198c57808061197590612adf565b915050600a826119859190612961565b9150611962565b60008167ffffffffffffffff8111156119a8576119a7612c15565b5b6040519080825280601f01601f1916602001820160405280156119da5781602001600182028036833780820191505090505b5090505b60008514611a67576001826119f39190612992565b9150600a85611a029190612b28565b6030611a0e919061290b565b60f81b818381518110611a2457611a23612be6565b5b60200101907effffffffffffffffffffffffffffffffffffffffffffffffffffffffffffff1916908160001a905350600a85611a609190612961565b94506119de565b8093505050505b919050565b611a7b6108e7565b15611abb576040517f08c379a0000000000000000000000000000000000000000000000000000000008152600401611ab2906126d7565b60405180910390fd5b611ac6838383611cbd565b505050565b611ad58383611cc2565b611ae26000848484611b26565b611b21576040517f08c379a0000000000000000000000000000000000000000000000000000000008152600401611b1890612617565b60405180910390fd5b505050565b6000611b478473ffffffffffffffffffffffffffffffffffffffff16611e90565b15611cb0578373ffffffffffffffffffffffffffffffffffffffff1663150b7a02611b70610fb3565b8786866040518563ffffffff1660e01b8152600401611b92949392919061256e565b602060405180830381600087803b158015611bac57600080fd5b505af1925050508015611bdd57506040513d601f19601f82011682018060405250810190611bda919061216c565b60015b611c60573d8060008114611c0d576040519150601f19603f3d011682016040523d82523d6000602084013e611c12565b606091505b50600081511415611c58576040517f08c379a0000000000000000000000000000000000000000000000000000000008152600401611c4f90612617565b60405180910390fd5b805181602001fd5b63150b7a0260e01b7bffffffffffffffffffffffffffffffffffffffffffffffffffffffff1916817bffffffffffffffffffffffffffffffffffffffffffffffffffffffff191614915050611cb5565b600190505b949350505050565b505050565b600073ffffffffffffffffffffffffffffffffffffffff168273ffffffffffffffffffffffffffffffffffffffff161415611d32576040517f08c379a0000000000000000000000000000000000000000000000000000000008152600401611d2990612757565b60405180910390fd5b611d3b81610f47565b15611d7b576040517f08c379a0000000000000000000000000000000000000000000000000000000008152600401611d7290612657565b60405180910390fd5b611d8760008383611a73565b6001600360008473ffffffffffffffffffffffffffffffffffffffff1673ffffffffffffffffffffffffffffffffffffffff1681526020019081526020016000206000828254611dd7919061290b565b92505081905550816002600083815260200190815260200160002060006101000a81548173ffffffffffffffffffffffffffffffffffffffff021916908373ffffffffffffffffffffffffffffffffffffffff160217905550808273ffffffffffffffffffffffffffffffffffffffff16600073ffffffffffffffffffffffffffffffffffffffff167fddf252ad1be2c89b69c2b068fc378daa952ba7f163c4a11628f55a4df523b3ef60405160405180910390a45050565b600080823b905060008111915050919050565b6000611eb6611eb184612897565b612872565b905082815260208101848484011115611ed257611ed1612c49565b5b611edd848285612a3a565b509392505050565b600081359050611ef481613162565b92915050565b600081359050611f0981613179565b92915050565b600081359050611f1e81613190565b92915050565b600081519050611f3381613190565b92915050565b600082601f830112611f4e57611f4d612c44565b5b8135611f5e848260208601611ea3565b91505092915050565b600081359050611f76816131a7565b92915050565b600060208284031215611f9257611f91612c53565b5b6000611fa084828501611ee5565b91505092915050565b60008060408385031215611fc057611fbf612c53565b5b6000611fce85828601611ee5565b9250506020611fdf85828601611ee5565b9150509250929050565b60008060006060848603121561200257612001612c53565b5b600061201086828701611ee5565b935050602061202186828701611ee5565b925050604061203286828701611f67565b9150509250925092565b6000806000806080858703121561205657612055612c53565b5b600061206487828801611ee5565b945050602061207587828801611ee5565b935050604061208687828801611f67565b925050606085013567ffffffffffffffff8111156120a7576120a6612c4e565b5b6120b387828801611f39565b91505092959194509250565b600080604083850312156120d6576120d5612c53565b5b60006120e485828601611ee5565b92505060206120f585828601611efa565b9150509250929050565b6000806040838503121561211657612115612c53565b5b600061212485828601611ee5565b925050602061213585828601611f67565b9150509250929050565b60006020828403121561215557612154612c53565b5b600061216384828501611f0f565b91505092915050565b60006020828403121561218257612181612c53565b5b600061219084828501611f24565b91505092915050565b6000602082840312156121af576121ae612c53565b5b60006121bd84828501611f67565b91505092915050565b6121cf816129c6565b82525050565b6121de816129d8565b82525050565b60006121ef826128c8565b6121f981856128de565b9350612209818560208601612a49565b61221281612c58565b840191505092915050565b6000612228826128d3565b61223281856128ef565b9350612242818560208601612a49565b61224b81612c58565b840191505092915050565b6000612261826128d3565b61226b8185612900565b935061227b818560208601612a49565b80840191505092915050565b60006122946014836128ef565b915061229f82612c69565b602082019050919050565b60006122b76032836128ef565b91506122c282612c92565b604082019050919050565b60006122da6026836128ef565b91506122e582612ce1565b604082019050919050565b60006122fd601c836128ef565b915061230882612d30565b602082019050919050565b60006123206024836128ef565b915061232b82612d59565b604082019050919050565b60006123436019836128ef565b915061234e82612da8565b602082019050919050565b6000612366602c836128ef565b915061237182612dd1565b604082019050919050565b60006123896010836128ef565b915061239482612e20565b602082019050919050565b60006123ac6038836128ef565b91506123b782612e49565b604082019050919050565b60006123cf602a836128ef565b91506123da82612e98565b604082019050919050565b60006123f26029836128ef565b91506123fd82612ee7565b604082019050919050565b60006124156020836128ef565b915061242082612f36565b602082019050919050565b6000612438602c836128ef565b915061244382612f5f565b604082019050919050565b600061245b6020836128ef565b915061246682612fae565b602082019050919050565b600061247e6029836128ef565b915061248982612fd7565b604082019050919050565b60006124a1602f836128ef565b91506124ac82613026565b604082019050919050565b60006124c46021836128ef565b91506124cf82613075565b604082019050919050565b60006124e76031836128ef565b91506124f2826130c4565b604082019050919050565b600061250a6030836128ef565b915061251582613113565b604082019050919050565b61252981612a30565b82525050565b600061253b8285612256565b91506125478284612256565b91508190509392505050565b600060208201905061256860008301846121c6565b92915050565b600060808201905061258360008301876121c6565b61259060208301866121c6565b61259d6040830185612520565b81810360608301526125af81846121e4565b905095945050505050565b60006020820190506125cf60008301846121d5565b92915050565b600060208201905081810360008301526125ef818461221d565b905092915050565b6000602082019050818103600083015261261081612287565b9050919050565b60006020820190508181036000830152612630816122aa565b9050919050565b60006020820190508181036000830152612650816122cd565b9050919050565b60006020820190508181036000830152612670816122f0565b9050919050565b6000602082019050818103600083015261269081612313565b9050919050565b600060208201905081810360008301526126b081612336565b9050919050565b600060208201905081810360008301526126d081612359565b9050919050565b600060208201905081810360008301526126f08161237c565b9050919050565b600060208201905081810360008301526127108161239f565b9050919050565b60006020820190508181036000830152612730816123c2565b9050919050565b60006020820190508181036000830152612750816123e5565b9050919050565b6000602082019050818103600083015261277081612408565b9050919050565b600060208201905081810360008301526127908161242b565b9050919050565b600060208201905081810360008301526127b08161244e565b9050919050565b600060208201905081810360008301526127d081612471565b9050919050565b600060208201905081810360008301526127f081612494565b9050919050565b60006020820190508181036000830152612810816124b7565b9050919050565b60006020820190508181036000830152612830816124da565b9050919050565b60006020820190508181036000830152612850816124fd565b9050919050565b600060208201905061286c6000830184612520565b92915050565b600061287c61288d565b90506128888282612aae565b919050565b6000604051905090565b600067ffffffffffffffff8211156128b2576128b1612c15565b5b6128bb82612c58565b9050602081019050919050565b600081519050919050565b600081519050919050565b600082825260208201905092915050565b600082825260208201905092915050565b600081905092915050565b600061291682612a30565b915061292183612a30565b9250827fffffffffffffffffffffffffffffffffffffffffffffffffffffffffffffffff0382111561295657612955612b59565b5b828201905092915050565b600061296c82612a30565b915061297783612a30565b92508261298757612986612b88565b5b828204905092915050565b600061299d82612a30565b91506129a883612a30565b9250828210156129bb576129ba612b59565b5b828203905092915050565b60006129d182612a10565b9050919050565b60008115159050919050565b60007fffffffff0000000000000000000000000000000000000000000000000000000082169050919050565b600073ffffffffffffffffffffffffffffffffffffffff82169050919050565b6000819050919050565b82818337600083830152505050565b60005b83811015612a67578082015181840152602081019050612a4c565b83811115612a76576000848401525b50505050565b60006002820490506001821680612a9457607f821691505b60208210811415612aa857612aa7612bb7565b5b50919050565b612ab782612c58565b810181811067ffffffffffffffff82111715612ad657612ad5612c15565b5b80604052505050565b6000612aea82612a30565b91507fffffffffffffffffffffffffffffffffffffffffffffffffffffffffffffffff821415612b1d57612b1c612b59565b5b600182019050919050565b6000612b3382612a30565b9150612b3e83612a30565b925082612b4e57612b4d612b88565b5b828206905092915050565b7f4e487b7100000000000000000000000000000000000000000000000000000000600052601160045260246000fd5b7f4e487b7100000000000000000000000000000000000000000000000000000000600052601260045260246000fd5b7f4e487b7100000000000000000000000000000000000000000000000000000000600052602260045260246000fd5b7f4e487b7100000000000000000000000000000000000000000000000000000000600052603260045260246000fd5b7f4e487b7100000000000000000000000000000000000000000000000000000000600052604160045260246000fd5b600080fd5b600080fd5b600080fd5b600080fd5b6000601f19601f8301169050919050565b7f5061757361626c653a206e6f7420706175736564000000000000000000000000600082015250565b7f4552433732313a207472616e7366657220746f206e6f6e20455243373231526560008201527f63656976657220696d706c656d656e7465720000000000000000000000000000602082015250565b7f4f776e61626c653a206e6577206f776e657220697320746865207a65726f206160008201527f6464726573730000000000000000000000000000000000000000000000000000602082015250565b7f4552433732313a20746f6b656e20616c7265616479206d696e74656400000000600082015250565b7f4552433732313a207472616e7366657220746f20746865207a65726f2061646460008201527f7265737300000000000000000000000000000000000000000000000000000000602082015250565b7f4552433732313a20617070726f766520746f2063616c6c657200000000000000600082015250565b7f4552433732313a206f70657261746f7220717565727920666f72206e6f6e657860008201527f697374656e7420746f6b656e0000000000000000000000000000000000000000602082015250565b7f5061757361626c653a2070617573656400000000000000000000000000000000600082015250565b7f4552433732313a20617070726f76652063616c6c6572206973206e6f74206f7760008201527f6e6572206e6f7220617070726f76656420666f7220616c6c0000000000000000602082015250565b7f4552433732313a2062616c616e636520717565727920666f7220746865207a6560008201527f726f206164647265737300000000000000000000000000000000000000000000602082015250565b7f4552433732313a206f776e657220717565727920666f72206e6f6e657869737460008201527f656e7420746f6b656e0000000000000000000000000000000000000000000000602082015250565b7f4552433732313a206d696e7420746f20746865207a65726f2061646472657373600082015250565b7f4552433732313a20617070726f76656420717565727920666f72206e6f6e657860008201527f697374656e7420746f6b656e0000000000000000000000000000000000000000602082015250565b7f4f776e61626c653a2063616c6c6572206973206e6f7420746865206f776e6572600082015250565b7f4552433732313a207472616e73666572206f6620746f6b656e2074686174206960008201527f73206e6f74206f776e0000000000000000000000000000000000000000000000602082015250565b7f4552433732314d657461646174613a2055524920717565727920666f72206e6f60008201527f6e6578697374656e7420746f6b656e0000000000000000000000000000000000602082015250565b7f4552433732313a20617070726f76616c20746f2063757272656e74206f776e6560008201527f7200000000000000000000000000000000000000000000000000000000000000602082015250565b7f4552433732313a207472616e736665722063616c6c6572206973206e6f74206f60008201527f776e6572206e6f7220617070726f766564000000000000000000000000000000602082015250565b7f4552433732314275726e61626c653a2063616c6c6572206973206e6f74206f7760008201527f6e6572206e6f7220617070726f76656400000000000000000000000000000000602082015250565b61316b816129c6565b811461317657600080fd5b50565b613182816129d8565b811461318d57600080fd5b50565b613199816129e4565b81146131a457600080fd5b50565b6131b081612a30565b81146131bb57600080fd5b5056fea2646970667358221220e555705d3dc1a1f78d5c9c3c78f4bcb26cd60625230d1a0b68e859a1b612b70164736f6c63430008070033",
  "immutableReferences": {},
  "source": "// SPDX-License-Identifier: MIT\r\npragma solidity ^0.8.0;\r\n\r\nimport \"@openzeppelin/contracts/token/ERC721/ERC721.sol\";\r\nimport \"@openzeppelin/contracts/security/Pausable.sol\";\r\nimport \"@openzeppelin/contracts/access/Ownable.sol\";\r\nimport \"@openzeppelin/contracts/token/ERC721/extensions/ERC721Burnable.sol\";\r\nimport \"@openzeppelin/contracts/utils/Counters.sol\";\r\n\r\n/// @custom:security-contact jesusgalicia2019@gmail.com\r\ncontract MyToken is ERC721, Pausable, Ownable, ERC721Burnable {\r\n    using Counters for Counters.Counter;\r\n\r\n    Counters.Counter private _tokenIdCounter;\r\n\r\n    constructor() ERC721(\"MyToken\", \"MTK\") {}\r\n\r\n    function _baseURI() internal pure override returns (string memory) {\r\n        return \"https://Base-URI\";\r\n    }\r\n\r\n    function pause() public onlyOwner {\r\n        _pause();\r\n    }\r\n\r\n    function unpause() public onlyOwner {\r\n        _unpause();\r\n    }\r\n\r\n    function safeMint(address to) public onlyOwner {\r\n        uint256 tokenId = _tokenIdCounter.current();\r\n        _tokenIdCounter.increment();\r\n        _safeMint(to, tokenId);\r\n    }\r\n\r\n    function _beforeTokenTransfer(address from, address to, uint256 tokenId)\r\n        internal\r\n        whenNotPaused\r\n        override\r\n    {\r\n        super._beforeTokenTransfer(from, to, tokenId);\r\n    }\r\n}\r\n",
  "sourcePath": "C:\\Users\\jesus\\Desktop\\demos para github\\erc1155\\contracts\\erc1155.sol",
  "compiler": {
    "name": "solc",
    "version": "0.8.7+commit.e28d00a7.Emscripten.clang"
  },
  "schemaVersion": "3.4.3",
  "updatedAt": "2022-01-12T10:14:47.552Z",
  "devdoc": {
    "custom:security-contact": "jesusgalicia2019@gmail.com",
    "kind": "dev",
    "methods": {
      "approve(address,uint256)": {
        "details": "See {IERC721-approve}."
      },
      "balanceOf(address)": {
        "details": "See {IERC721-balanceOf}."
      },
      "burn(uint256)": {
        "details": "Burns `tokenId`. See {ERC721-_burn}. Requirements: - The caller must own `tokenId` or be an approved operator."
      },
      "getApproved(uint256)": {
        "details": "See {IERC721-getApproved}."
      },
      "isApprovedForAll(address,address)": {
        "details": "See {IERC721-isApprovedForAll}."
      },
      "name()": {
        "details": "See {IERC721Metadata-name}."
      },
      "owner()": {
        "details": "Returns the address of the current owner."
      },
      "ownerOf(uint256)": {
        "details": "See {IERC721-ownerOf}."
      },
      "paused()": {
        "details": "Returns true if the contract is paused, and false otherwise."
      },
      "renounceOwnership()": {
        "details": "Leaves the contract without owner. It will not be possible to call `onlyOwner` functions anymore. Can only be called by the current owner. NOTE: Renouncing ownership will leave the contract without an owner, thereby removing any functionality that is only available to the owner."
      },
      "safeTransferFrom(address,address,uint256)": {
        "details": "See {IERC721-safeTransferFrom}."
      },
      "safeTransferFrom(address,address,uint256,bytes)": {
        "details": "See {IERC721-safeTransferFrom}."
      },
      "setApprovalForAll(address,bool)": {
        "details": "See {IERC721-setApprovalForAll}."
      },
      "supportsInterface(bytes4)": {
        "details": "See {IERC165-supportsInterface}."
      },
      "symbol()": {
        "details": "See {IERC721Metadata-symbol}."
      },
      "tokenURI(uint256)": {
        "details": "See {IERC721Metadata-tokenURI}."
      },
      "transferFrom(address,address,uint256)": {
        "details": "See {IERC721-transferFrom}."
      },
      "transferOwnership(address)": {
        "details": "Transfers ownership of the contract to a new account (`newOwner`). Can only be called by the current owner."
      }
    },
    "version": 1
  },
  "userdoc": {
    "kind": "user",
    "methods": {},
    "version": 1
  }
}